:020000040800F2
:10000000B8060020890100089D0C00088909000835
:10001000310B00081D0700082D1400080000000027
:100020000000000000000000000000007112000845
:100030007908000800000000C1100008291300081A
:10004000A3010008A3010008A3010008A301000800
:10005000A3010008A3010008A3010008A3010008F0
:10006000A3010008A3010008A3010008A3010008E0
:10007000A3010008A3010008A3010008A3010008D0
:10008000A3010008A3010008A3010008A3010008C0
:10009000A3010008A3010008A3010008A3010008B0
:1000A000A3010008A3010008A3010008A3010008A0
:1000B000A3010008A3010008A3010008A301000890
:1000C000A3010008A3010008A3010008A301000880
:1000D000A3010008A3010008A3010008A301000870
:1000E000A3010008A3010008A301000800F002F822
:1000F00000F03AF80AA090E8000C82448344AAF188
:100100000107DA4501D100F02FF8AFF2090EBAE885
:100110000F0013F0010F18BFFB1A43F0010318473B
:10012000A4190000C4190000103A24BF78C878C18F
:10013000FAD8520724BF30C830C144BF04680C60ED
:10014000704700000023002400250026103A28BF35
:1001500078C1FBD8520728BF30C148BF0B60704739
:100160001FB51FBD10B510BD00F0C3F91146FFF754
:10017000F7FF01F06FF900F0E1F903B4FFF7F2FFC8
:1001800003BC00F0E9F9000009488047094800472E
:10019000FEE7FEE7FEE7FEE7FEE7FEE7FEE7FEE737
:1001A000FEE7FEE704480549054A064B7047000094
:1001B0002D130008ED000008B8000020B80600204C
:1001C000B8020020B802002010B5203AC0F00B8021
:1001D000B1E81850203AA0E81850B1E81850A0E84B
:1001E0001850BFF4F5AF5FEA027C24BFB1E81850A5
:1001F000A0E8185044BF18C918C0BDE810405FEA15
:10020000827C24BF51F8043B40F8043B08BF704790
:10021000D20728BF31F8023B48BF11F8012B28BF95
:1002200020F8023B48BF00F8012B7047014900F05D
:10023000DDB800002800002010B503681C1404EB92
:1002400021449BB289B2194494FBF2F302FB13439D
:1002500094FBF2F401EB034393FBF2F102FB113147
:1002600093FBF2F301E05B1E11440029FBDB01600C
:1002700003EB044010BDF0B504464FF0FF3585B0E8
:100280000068049060680290A0680390E0680190A4
:1002900020690090666906F18040B0F1004F7CD87B
:1002A0003C22002104A8FFF7C7FF3C22014602A818
:1002B000FFF7C2FF1822014603A8FFF7BDFF411E4A
:1002C00040F2B55201A8FFF7B7FF0C220746684677
:1002D0000021FFF7B1FF414B00EB870030440026BF
:1002E0007B4411E0511A01910099491C02290091A7
:1002F00002D00C2908D105E0810705D00199491CDD
:10030000019101E0401C00960099019A595C9142CC
:10031000E8DD0099012906D11C2A04D1810702D009
:100320000221CDE90016A0F146018B293CD2DDE97E
:100330000061002202E09F5C521C3944B242FADBA9
:10034000012E02DD820700D0491E40F2B55340F273
:100350006D16C21700EB927292105A4300F003031D
:1003600003FB062283070A4400D1521E039E02EBC0
:100370004203049F06EBC303029EC3EB031306EB89
:100380008303174E33441E149BB2C6EB0616C3EB11
:100390000313B60007EB830300E005E006EB13460A
:1003A00066F31F43360C02D0284605B0F0BD80C46A
:1003B000029E40C4039E40C4019E761C44F80C6B10
:1003C000009E44E902600720521C92FBF0F600FBFD
:1003D000162084E823001846E7E70000D417000041
:1003E000A039CEFD704770477047000070B50C46CD
:1003F000016800204A1C3ED03C22B1FBF2F302FB14
:100400001313B1FBF2F12360B1FBF2F302FB131300
:10041000B1FBF2F118226360B1FBF2F302FB13139C
:10042000B1FBF2F146F2E0320A440721A360B2FBCD
:10043000F1F301FB132140F2B553B2FBF3F5A161D7
:10044000B2FBF3F103FB15228900B2F5B77F08D3A5
:100450009B10521EB2FBF3F52944B2FBF3F503FBEC
:1004600015220F4BE261616189077B440CD03B2A66
:100470000AD3521C08E02C21204600F013F801207A
:10048000E0600AE0521A401C195C9142FAD9521CF1
:10049000C4E903204FF0FF302062204670BD000009
:1004A0004A1600004FF0000200B5134694469646E7
:1004B000203922BFA0E80C50A0E80C50B1F1200177
:1004C000BFF4F7AF090728BFA0E80C5048BF0CC025
:1004D0005DF804EB890028BF40F8042B08BF704783
:1004E00048BF20F8022B11F0804F18BF00F8012BF5
:1004F0007047754600F02CF8AE4605006946534635
:1005000020F00700854618B020B5FFF74BFEBDE888
:1005100020404FF000064FF000074FF000084FF06A
:10052000000B21F00701AC46ACE8C009ACE8C009FB
:10053000ACE8C009ACE8C0098D46704710B5044668
:10054000AFF300802046BDE81040FFF716BE000064
:10055000004870475400002001491820ABBEFEE758
:10056000260002007047000070B532494FF4616008
:10057000CA88424308894989C0EB001002EB800019
:1005800008442D4D4FF461612A784A436978C1EBE4
:10059000011102EB8101AA781144814201D90C1AA0
:1005A00002E0264A101A44184FF4616694FBF6F2F2
:1005B00002230721032000F027FD94FBF6F006FB41
:1005C00010403C2690FBF6F202230A21032000F0A3
:1005D0001BFD94FBF6F006FB104202230D210320C5
:1005E00000F012FD022000F0E5FD012806D0BDE874
:1005F0007040012112A2042000F026BD28790028B5
:1006000016D1022000F0B4FD0120287110A20121B2
:10061000042000F019FD00F0A5F800F021FE00F024
:10062000BFFDA8600020E870286128706870A8707D
:1006300070BD00001A00002004000020805101005D
:1006400020202020436F756E74696E672020200083
:100650002020202054696D65204F757420202000D3
:1006600070B51D4800251D4C0078012804D00228D3
:100670000AD0032810D016E02178491CC9B2217095
:10068000172910D925700EE06178491CC9B2617034
:100690003B2908D9657006E0A178491CC9B2A17050
:1006A0003B2900D9A570042814D100F063F868B183
:1006B00025706570A57000F04DF800F0C9FDBDE82B
:1006C0007040012106A2042000F0BEBCBDE87040CD
:1006D00000F054BE70BD00000100002004000020A6
:1006E000202020202020202020202020202020200A
:1006F0000000000008B503490844009000980088F5
:1007000008BD0000006C004008B5034A104400908A
:100710000098016008BD0000006C0040FEE700008A
:1007200038B50121082000F0DBFC10208DF8030013
:100730000402ADF8004003208DF80200044D694624
:10074000284600F0B6F82146284600F015F938BDD5
:10075000000C01404FF48051014800F00DB9000039
:10076000000C01404FF48051014800F003B9000033
:10077000000C014010B54FF48051044800F0F3F82C
:1007800008B1002010BD012010BD0000000C014088
:1007900011481249007801280DD0022810D00328F2
:1007A00013D0042816D10E490020087001210DA293
:1007B000042000F049BCC888401CC88000F04EBA34
:1007C0000889401C088100F049BA4889401C4881CA
:1007D00000F044BA70470000010000201A00002019
:1007E0000000002020202020202020202020202069
:1007F000202020200000000070B51B4D1B4C2878E5
:1008000001280CD12088401C80B2208040F2F37176
:10081000884202D940F2DF70208000F01FFA287869
:100820000126022808D16088401C80B260800C2814
:1008300000D9668000F012FA287803280CD100F065
:1008400079F9A088401C80B2A080094909788842C3
:1008500000D9A68000F002FA2878042802D10549C0
:100860000220087070BD0000010000201A00002066
:100870001800002000000020704700B502464FF429
:100880007A7302E0184600F004F8521E501CF9D1A9
:1008900000BD00EBC000C1004FF0E020416100212D
:1008A0008161052101610169C903FCD50421016150
:1008B00070472DE9F0410022CC7804F00F03E406E4
:1008C00001D58C7823430C784FF00F0714F0FF0FFD
:1008D0004FF0010C1CD005680CFA02F40E8826407B
:1008E000A64211D1960007FA06F825EA080503FA90
:1008F00006F848EA0505CE78282E02D0482E02D008
:1009000002E0446100E00461521C082AE4D305605F
:100910000A88FF2A1ED94568002202F108060CFA4F
:1009200006F40E882640A64210D1960007FA06F873
:1009300025EA080503FA06F848EA0505CE78282EC8
:1009400000D14461CE78482E00D10461521C082A9F
:10095000E3D34560BDE8F0810246002092680A4278
:1009600000D00120704702460020D2680A4200D021
:10097000012070474161704701617047002A01D032
:100980000161704741617047FEE7000010B500F05B
:1009900017F80A494870087838B1012809D00228A8
:1009A0000BD1BDE81040FFF7F3BEBDE81040FFF7E4
:1009B00057BEBDE81040FFF71FBF10BD000000206C
:1009C0002DE9F0410025354C354E4FF4006739468E
:1009D0003046FFF7C1FF78B91420FFF74EFF01E062
:1009E000641E7CB139463046FFF7B6FF0028F7D0C9
:1009F0001420FFF742FF012502213046FFF7ACFF2C
:100A000030B115E01420FFF738FF0120BDE8F08178
:100A10001420FFF732FF01E0641E84B1022130464A
:100A2000FFF79AFF0028F7D01420FFF726FF0225D2
:100A30001C4E80213046FFF78FFF28B114E01420B0
:100A4000FFF71BFF0220E1E71420FFF716FF01E08C
:100A5000641E7CB180213046FFF77EFF0028F7D06E
:100A60001420FFF70AFF032520213046FFF774FF0B
:100A700028B111E01420FFF700FF0320C6E714207F
:100A8000FFF7FBFE20213046FFF766FF0028F9D074
:100A90001420FFF7F2FE04252846B7E7C027090017
:100AA000000C01400008014038B50121042000F08D
:100AB00017FB48248DF80340A020ADF80000032563
:100AC0008DF8025069460A48FFF7F3FE012108201D
:100AD00000F006FB8DF8034040F60200ADF8000080
:100AE0008DF8025069460348FFF7E3FE38BD000069
:100AF00000080140000C014038B50121082000F039
:100B0000EFFA14208DF803004FF40044ADF80040D4
:100B100003208DF80200054D69462846FFF7C9FEFF
:100B200021462846FFF728FF38BD0000000C014091
:100B3000FEE7000010B5184BB3F9000000F077FC99
:100B40001F241E22154901280BD058880D2820D2B9
:100B5000DFE800F01F1D1A1D1F1D1F1D1D1F1D1F7B
:100B60001D0058880D280DD2DFE800F00C0A070A96
:100B70000C0A0C0A0A0C0A0C0A001D20087010BD91
:100B80000C7010BD0A7010BD1C20087010BD0C70D8
:100B900010BD0A7010BD00001A00002018000020CF
:100BA00010B50121080700F08DFA0121C80600F0F8
:100BB00089FA012000F07EFA0420FFF79BFD4AF23B
:100BC000A554A0421FD0012000F0B0FA412000F04F
:100BD00095FA0128FAD1000200F0C2FA012000F0D3
:100BE000B9FA00F029FB00F01FFB47F6FF7000F098
:100BF0000BFB00F019FB00F031F82146BDE8104076
:100C00000420FFF781BD00F017FBBDE8104000F0A5
:100C10000BBB000000B58DB000F0C2FA00F5E1405A
:100C20000C900CA8FFF702FB01462C2201A8FFF74D
:100C3000CBFA0699084801F26C7101800599491CAC
:100C40004180049981800399C180029901810199B1
:100C500041810DB000BD00001A00002000B58BB02E
:100C60000D480188A1F26C7105914188491E0491DB
:100C700081880391C1880291018901914089009086
:100C80006846FFF7F8FAA0F5E14000F0ADFA00F091
:100C9000CBFA0BB000BD00001A000020704770B501
:100CA00000250021284600F0EDF80024002000F087
:100CB000EFF9641CE4B2802CF8D36D1CEDB2082D62
:100CC000EFD370BD38B50121082000F009FA1420D7
:100CD0008DF8030003208DF802000002ADF800003B
:100CE000074C69462046FFF7E4FD01221102204629
:100CF000FFF744FE012251022046FFF73FFE38BDB8
:100D0000000C01402DE9F04707460024134D4FF039
:100D100080094FF40078AE1529FA04F23A404146B2
:100D20002846FFF72BFE012231462846FFF726FE14
:100D3000002231462846FFF721FE641CE4B2082C4D
:100D4000EAD3012231462846FFF718FE31462846ED
:100D5000BDE8F0470022FFF711BE0000000C014083
:100D600070B501220B4D540221462846FFF706FEBE
:100D70000122160231462846FFF700FE00222146D6
:100D80002846FFF7FBFD31462846BDE870400022AB
:100D9000FFF7F4BD000C014070B50A4D4FF400742C
:100DA000002221462846FFF7E9FD012211022846CC
:100DB000FFF7E4FD21462846BDE870400122FFF719
:100DC000DDBD0000000C014010B500214FF47A7227
:100DD0000020401C9042FCD3491C9142F8D3FFF7FD
:100DE00071FFAE2000F043F9D52000F040F98020DB
:100DF00000F03DF9A82000F03AF93F2000F037F963
:100E0000D32000F034F9002000F031F9402000F048
:100E10002EF9A12000F02BF9C82000F028F9DA20E3
:100E200000F025F9122000F022F9812000F01FF9CE
:100E3000CF2000F01CF9D92000F019F9F12000F0C2
:100E400016F9DB2000F013F9302000F010F9A4208F
:100E500000F00DF9A62000F00AF98D2000F007F946
:100E6000142000F004F9AF2000F001F9BDE81040B3
:100E7000FFF715BF0346012000E05843491E4A1CF6
:100E8000FBD1704710B50C4640F0B00000F0EFF811
:100E9000102040EA141000F0EAF804F00F00BDE85A
:100EA000104000F0E4B8000010B52F4C04230621D8
:100EB0002288012000F0A8F8628802230B2101207B
:100EC00000F0A2F8A28802230E21012000F09CF875
:100ED0000223E2880721184600F096F802232289AF
:100EE0000A21184600F090F8022362890D21184665
:100EF00000F08AF81D4C207810B1FFF735FB14E0A4
:100F00001B48022307210278032000F07DF81948CE
:100F100002230A210278032000F076F81648022303
:100F20000D210278032000F06FF8144800780128A2
:100F30000BD0022810D02178084314D10121BDE83C
:100F400010400FA2042000F07FB80121BDE810403E
:100F50000FA2042000F078B80121BDE8104010A2D3
:100F6000042000F071B810BD1A0000200700002016
:100F700004000020050000200600002000000020E2
:100F8000204368616E676520416C61726D000000EE
:100F9000204368616E67652044617465200000002D
:100FA000204368616E676520436C6F636B000000CF
:100FB0002DE9F0411546491E461ECF007006F9B2D4
:100FC000000EFFF75FFF00240E48203D00EB0515E3
:100FD000285D00F05DF8641CE4B2082CF8D3012011
:100FE00000EB4600F9B2C0B2FFF74CFF002428190D
:100FF000007A00F04DF8641CE4B2082CF7D3BDE889
:10100000F0810000C81400082DE9F04781460F4622
:1010100090461E4600240A2512E0311B491E0A2074
:10102000FFF728FFB8FBF0F2B2FBF5F005FB10224A
:101030003819C1B230324846FFF7BAFF641CE4B237
:10104000B442EAD3BDE8F0872DE9F04107460D46EA
:101050001646002406E02819C1B23846FFF7A8FF5B
:10106000641CE4B2325D002AF5D1BDE8F08110B510
:101070000446FFF775FE7820FFF744FE0020FFF7D7
:1010800041FE2046FFF73EFEBDE81040FFF784BE5C
:1010900010B50446FFF764FE7820FFF733FE4020CA
:1010A000FFF730FE2046FFF72DFEBDE81040FFF7AA
:1010B00073BE0000014908627047000000000E4244
:1010C00070470000054A002903D0D1690143D1616E
:1010D0007047D1698143D161704700000010024020
:1010E000054A002903D091690143916170479169D4
:1010F00081439161704700000010024003460020C8
:101100005909094A01290AD002290AD0516A03F073
:101110001F02012393400B4200D001207047116849
:10112000F5E7116AF3E700000010024008490022C9
:101130000A7001F82029012805D0042802D10520D1
:1011400081F820007047012081F8200070470000DE
:101150002010024001490860704700003C044242F0
:1011600002490A6A02430A62704700000010024006
:1011700002490A8882430A80704700000428004020
:101180000248018841F010010180704704280040A6
:101190000248018821F010010180704704280040B6
:1011A000034800880249091F098840EA0140704746
:1011B0001C28004001460020024A12880A4200D042
:1011C000012070470428004000B50246FFF7D8FF11
:1011D0000449100C0880081D02805DF804EBFFF73D
:1011E000D7BF00002028004000B50246FFF7C8FF27
:1011F0000449100C0880081D02805DF804EBFFF71D
:10120000C7BF00001828004000B50246FFF7B8FF2E
:101210000449C2F303400880081D02805DF804EB16
:10122000FFF7B6BF08280040024801888906FCD5B0
:1012300070470000042800400448018821F008019C
:10124000018001880907FCD5704700000428004090
:101250004FF400410148FFF78FBB0000000C014034
:101260004FF400410148FFF785BB0000000C01402E
:10127000704700F001B800000CB500220192009206
:101280002748016841F4803101604FF4A063016890
:1012900001F4003100910199491C0191009911B9A3
:1012A00001999942F3D10168890302D50121009186
:1012B00000E000920099012930D11A490A6842F0F1
:1012C00010020A600A6822F003020A600A6842F00B
:1012D00002020A604168416041684160416841F42E
:1012E00080614160416821F47C114160416841F4B2
:1012F000E8114160016841F0807101600168890175
:10130000FCD5416821F003014160416841F00201D0
:1013100041604168C1F381010229FAD10CBD00008E
:1013200000100240002002407047000010B50F4836
:10133000016841F00101016041680D4A11404160BE
:1013400001680C4A11400160016821F480210160AC
:10135000416821F4FE0141604FF41F018160FFF7F5
:1013600088FF05494FF00060086010BD0010024082
:101370000000FFF8FFFFF6FE08ED00E070B5164D27
:101380004FF46160297841436878C0EB001001EBAD
:101390008000A97808442861104A4FF46161D3881D
:1013A0004B4311895289C1EB011103EB81011144B7
:1013B000884201D9441A02E0094A511A0C18012640
:1013C00038B1FFF7EDFE2044E860FFF7FDFEEE7058
:1013D00070BD0448067070BD040000201A00002093
:1013E000805101000000002010B50A4C207900282F
:1013F0000FD0FFF7D5FEA16888420AD0FFF7AAF9FF
:10140000FFF726FF04A201210420FFF71DFE0020A4
:10141000207110BD0400002020202020202020204A
:10142000202020202020202000000000FEE781074F
:1014300005D1642190FBF1F201FB120141B94FF497
:10144000C87190FBF1F201FB120008B10220704755
:1014500001207047FFF750FBFFF7B6FCFFF7A0FB3A
:10146000FFF722FBFFF75CF901210BA20846FFF70B
:10147000EBFD0DA201210220FFF7E6FD0EA20121E6
:101480000320FFF7E1FDFFF7C5FBFFF77FFAFFF74A
:101490000BFDFFF7A9FFF6E7446174653A58585809
:1014A000582F58582F585800436C6F636B3A585850
:1014B0003A58583A58580000416C61726D3A585881
:1014C0003A58583A58580000000000000000000048
:1014D0000000000000000000000000F80000000014
:1014E000000000333000000000100C06100C060055
:1014F000000000000000000040C07840C0784000BC
:10150000043F04043F040400007088FC083000001D
:10151000001820FF211E0000F008F000E018000075
:1015200000211C031E211E0000F00888700000002E
:101530001E2123241927211010160E000000000080
:101540000000000000000000000000E0180402009D
:10155000000000071820400000020418E00000000E
:101560000040201807000000404080F0804040000C
:101570000202010F01020200000000F00000000062
:101580000101011F01010100000000000000000036
:1015900080B07000000000000000000000000000AB
:1015A0000001010101010101000000000000000034
:1015B00000303000000000000000000080601804CF
:1015C000006018060100000000E010080810E000AC
:1015D000000F102020100F00001010F80000000075
:1015E0000020203F202000000070080808887000BC
:1015F000003028242221300000300888884830003C
:101600000018202020110E000000C02010F800005B
:1016100000070424243F240000F8088888080800F4
:101620000019212020110E0000E010888818000009
:10163000000F112020110E0000380808C8380800DB
:101640000000003F0000000000708808088870005B
:10165000001C222121221C0000E010080810E000DC
:101660000000312222110F00000000C0C000000065
:10167000000000303000000000000080000000008A
:101680000000806000000000000080402010080082
:10169000000102040810200040404040404040004B
:1016A0000404040404040400000810204080000026
:1016B0000020100804020100007048080808F0002B
:1016C0000000003036010000C030C828E810E000FB
:1016D0000718272423140B000000C038E000000086
:1016E000203C23020227382008F8888888700000F0
:1016F000203F202020110E00C030080808083800C4
:10170000071820202010080008F808080810E0003A
:10171000203F202020100F0008F88888E8081000DB
:10172000203F20202320180008F88888E8081000AF
:10173000203F200003000000C030080808380000E7
:1017400007182020221E020008F808000008F808E8
:10175000203F210101213F20000808F8080800006F
:101760000020203F2020000000000808F8080800A2
:10177000C08080807F00000008F888C0281808001A
:10178000203F20012638200008F808000000000053
:10179000203F20202020300008F8F800F8F808004A
:1017A000203F003F003F200008F830C00008F80844
:1017B000203F200007183F00E01008080810E00054
:1017C0000F10202020100F0008F808080808F0006B
:1017D000203F210101010000E01008080810E0008E
:1017E0000F18242438504F0008F888888888700023
:1017F000203F2000030C30200070880808083800C3
:101800000038202121221C00180808F808081800B8
:101810000000203F2000000008F808000008F80839
:10182000001F202020201F000878880000C83808EA
:10183000000007380E010000F80800F80008F80062
:10184000033C0700073C03000818688080681808FC
:1018500020302C03032C30200838C800C83808007A
:101860000000203F2000000010080808C8380800C9
:101870002038262120201800000000FE020202006D
:101880000000007F40404000000C30C0000000001D
:10189000000000010638C00000020202FE00000045
:1018A000004040407F0000000000040202020400EB
:1018B0000000000000000000000000000000000028
:1018C0008080808080808080000202040000000010
:1018D0000000000000000000000080808080000008
:1018E0000019242222223F2008F8008080000000F6
:1018F000003F112020110E000000008080800000B9
:10190000000E112020201100000000808088F800C7
:10191000000E112020103F200000808080800000F9
:10192000001F222222221300008080F0888888185D
:101930000020203F20200000000080808080800068
:10194000006B94949493600008F8008080800000FD
:10195000203F210000203F200080989800000000D8
:101960000020203F20200000000000809898000008
:1019700000C08080807F000008F800008080800028
:10198000203F24022D302000000808F8000000004D
:101990000020203F20200000808080808080800008
:1019A000203F20003F20003F80800080808000009A
:1019B000203F210000203F20000080808080000028
:1019C000001F202020201F00808000808000000059
:1019D00080FFA12020110E00000000808080800088
:1019E000000E112020A0FF80808080008080800079
:1019F00020203F21200001000000808080808000A6
:101A00000033242424241900008080E0808000001A
:101A10000000001F20200000808000000080800067
:101A2000001F202020103F208080800000808080C8
:101A300000010E3008060100808000800080808058
:101A40000F300C030C300F0000808000808080007D
:101A50000020312E0E3120008080800000808080A8
:101A600080818E7018060100008080808080800058
:101A70000021302C2221300000000000807C020276
:101A800000000000003F404000000000FF00000098
:101A900000000000FF0000000002027C8000000047
:101AA0000040403F00000000000601010202040463
:101AB00000000000000000001F1D1F1E1F1E1F1F32
:101AC0001E1F1E1FE41A000800000020280000004E
:101AD000280100080C1B00082800002090060000C8
:101AE00044010008000000000000000000000000A9
:101AF0000000000000000000000000000000E907F6
:0C1B000006000E000800000000000000BD
:04000005080000ED02
:00000001FF
