:020000040800F2
:10000000A806002089010008D50C0008B9090008DD
:10001000610B0008650700089D1300080000000040
:100020000000000000000000000000009112000825
:10003000A908000800000000E110000849130008AA
:10004000A3010008A3010008A3010008A301000800
:10005000A3010008A3010008A3010008A3010008F0
:10006000A3010008A3010008A3010008A3010008E0
:10007000A3010008A3010008A3010008A3010008D0
:10008000A3010008A3010008A3010008A3010008C0
:10009000A3010008A3010008A3010008A3010008B0
:1000A000A3010008A3010008A3010008A3010008A0
:1000B000A3010008A3010008A3010008A301000890
:1000C000A3010008A3010008A3010008A301000880
:1000D000A3010008A3010008A3010008A301000870
:1000E000A3010008A3010008A301000800F002F822
:1000F00000F03AF80AA090E8000C82448344AAF188
:100100000107DA4501D100F02FF8AFF2090EBAE885
:100110000F0013F0010F18BFFB1A43F0010318473B
:100120001019000030190000103A24BF78C878C1B7
:10013000FAD8520724BF30C830C144BF04680C60ED
:10014000704700000023002400250026103A28BF35
:1001500078C1FBD8520728BF30C148BF0B60704739
:100160001FB51FBD10B510BD00F0C3F91146FFF754
:10017000F7FF01F027F900F0E1F903B4FFF7F2FF10
:1001800003BC00F0E9F9000009488047094800472E
:10019000FEE7FEE7FEE7FEE7FEE7FEE7FEE7FEE737
:1001A000FEE7FEE704480549054A064B7047000094
:1001B0004D130008ED000008A8000020A80600204C
:1001C000A8020020A802002010B5203AC0F00B8041
:1001D000B1E81850203AA0E81850B1E81850A0E84B
:1001E0001850BFF4F5AF5FEA027C24BFB1E81850A5
:1001F000A0E8185044BF18C918C0BDE810405FEA15
:10020000827C24BF51F8043B40F8043B08BF704790
:10021000D20728BF31F8023B48BF11F8012B28BF95
:1002200020F8023B48BF00F8012B7047014900F05D
:10023000DDB800001C00002010B503681C1404EB9E
:1002400021449BB289B2194494FBF2F302FB13439D
:1002500094FBF2F401EB034393FBF2F102FB113147
:1002600093FBF2F301E05B1E11440029FBDB01600C
:1002700003EB044010BDF0B504464FF0FF3585B0E8
:100280000068049060680290A0680390E0680190A4
:1002900020690090666906F18040B0F1004F7CD87B
:1002A0003C22002104A8FFF7C7FF3C22014602A818
:1002B000FFF7C2FF1822014603A8FFF7BDFF411E4A
:1002C00040F2B55201A8FFF7B7FF0C220746684677
:1002D0000021FFF7B1FF414B00EB870030440026BF
:1002E0007B4411E0511A01910099491C02290091A7
:1002F00002D00C2908D105E0810705D00199491CDD
:10030000019101E0401C00960099019A595C9142CC
:10031000E8DD0099012906D11C2A04D1810702D009
:100320000221CDE90016A0F146018B293CD2DDE97E
:100330000061002202E09F5C521C3944B242FADBA9
:10034000012E02DD820700D0491E40F2B55340F273
:100350006D16C21700EB927292105A4300F003031D
:1003600003FB062283070A4400D1521E039E02EBC0
:100370004203049F06EBC303029EC3EB031306EB89
:100380008303174E33441E149BB2C6EB0616C3EB11
:100390000313B60007EB830300E005E006EB13460A
:1003A00066F31F43360C02D0284605B0F0BD80C46A
:1003B000029E40C4039E40C4019E761C44F80C6B10
:1003C000009E44E902600720521C92FBF0F600FBFD
:1003D000162084E823001846E7E7000040170000D5
:1003E000A039CEFD704770477047000070B50C46CD
:1003F000016800204A1C3ED03C22B1FBF2F302FB14
:100400001313B1FBF2F12360B1FBF2F302FB131300
:10041000B1FBF2F118226360B1FBF2F302FB13139C
:10042000B1FBF2F146F2E0320A440721A360B2FBCD
:10043000F1F301FB132140F2B553B2FBF3F5A161D7
:10044000B2FBF3F103FB15228900B2F5B77F08D3A5
:100450009B10521EB2FBF3F52944B2FBF3F503FBEC
:1004600015220F4BE261616189077B440CD03B2A66
:100470000AD3521C08E02C21204600F013F801207A
:10048000E0600AE0521A401C195C9142FAD9521CF1
:10049000C4E903204FF0FF302062204670BD000009
:1004A000B61500004FF0000200B51346944696467C
:1004B000203922BFA0E80C50A0E80C50B1F1200177
:1004C000BFF4F7AF090728BFA0E80C5048BF0CC025
:1004D0005DF804EB890028BF40F8042B08BF704783
:1004E00048BF20F8022B11F0804F18BF00F8012BF5
:1004F0007047754600F02CF8AE4605006946534635
:1005000020F00700854618B020B5FFF74BFEBDE888
:1005100020404FF000064FF000074FF000084FF06A
:10052000000B21F00701AC46ACE8C009ACE8C009FB
:10053000ACE8C009ACE8C0098D46704710B5044668
:10054000AFF300802046BDE81040FFF716BE000064
:10055000004870474800002001491820ABBEFEE764
:10056000260002007047000070B533494FF4616007
:10057000CA88424308894989C0EB001002EB800019
:1005800008442E4C4FF46161A2784A43E178C1EBF4
:10059000011102EB810122791144814201D9081A2B
:1005A00002E0274A101A08444FF4616190FBF1F20F
:1005B000D2B290FBF1F301FB13033C2193FBF1F367
:1005C000DDB290FBF1F301FB1300C6B20223072159
:1005D000032000F029FD02232A460A21032000F00F
:1005E00023FD022332460D21032000F01DFD0220D1
:1005F00000F0F0FD012806D0BDE87040012111A2F5
:10060000042000F031BDE079002813D1022000F071
:10061000BFFD0120E0710FA20121042000F024FDA4
:1006200000F0C4F800F02CFE00202070E060A07004
:10063000E070207170BD000010000020000000205C
:1006400080510100202020436F756E74696E672011
:100650002000000020202054696D65204F75742013
:100660002000000070B52F4D00246879012804D0C7
:1006700002280AD0032810D016E0A978491CC9B274
:10068000A970172910D9AC700EE0E978491CC9B2DD
:10069000E9703B2908D9EC7006E02979491CC9B2F8
:1006A00029713B2900D92C71042838D100F086F833
:1006B00068B1AC70EC702C7100F070F800F0D8FDEF
:1006C000BDE87040012118A2042000F0CDBCA9783B
:1006D0004FF461604143E878C0EB001001EB80000B
:1006E00029790844E860134A4FF46161D3884B4389
:1006F00011895289C1EB011103EB81011144884238
:1007000001D9441A02E00C4A511A0C18012638B1DA
:1007100000F056FD2044A86000F066FD2E7070BD0C
:100720006E7070BD0000002020202020202020209E
:1007300000000000100000208051010008B50349AE
:10074000084400900098008808BD0000006C00403C
:1007500008B5034A104400900098016008BD0000ED
:10076000006C0040FEE7000038B50121082000F0D1
:10077000C7FC10208DF803000402ADF800400320F0
:100780008DF80200044D6946284600F0AAF821467B
:10079000284600F009F938BD000C01404FF48051A3
:1007A000014800F001B90000000C01404FF48051F5
:1007B000014800F0F7B80000000C014010B54FF4FC
:1007C0008051044800F0E7F808B1002010BD012076
:1007D00010BD0000000C0140104A11495079012859
:1007E0000CD002280FD0032812D0042815D10020E5
:1007F000507001210BA2042000F036BCC888401CB8
:10080000C88000F047BA0889401C088100F042BA4D
:100810004889401C488100F03DBA70470000002024
:100820001000002020202020202020202020202018
:100830000000000070B51A4D1A4C687901280CD1DF
:100840002088401C80B2208040F2EE71884202D99C
:1008500040F2E470208000F01DFA68790126022839
:1008600008D16088401C80B260800C2800D9668066
:1008700000F010FA687903280BD100F073F9A08812
:10088000401C80B2A080A979884200D9A68000F0DF
:1008900001FA6879042801D10220687070BD000057
:1008A0000000002010000020704700B502464FF401
:1008B0007A7302E0184600F004F8521E501CF9D179
:1008C00000BD00EBC000C1004FF0E02041610021FD
:1008D0008161052101610169C903FCD50421016120
:1008E00070472DE9F0410022CC7804F00F03E406B4
:1008F00001D58C7823430C784FF00F0714F0FF0FCD
:100900004FF0010C1CD005680CFA02F40E8826404A
:10091000A64211D1960007FA06F825EA080503FA5F
:1009200006F848EA0505CE78282E02D0482E02D0D7
:1009300002E0446100E00461521C082AE4D305602F
:100940000A88FF2A1ED94568002202F108060CFA1F
:1009500006F40E882640A64210D1960007FA06F843
:1009600025EA080503FA06F848EA0505CE78282E98
:1009700000D14461CE78482E00D10461521C082A6F
:10098000E3D34560BDE8F0810246002092680A4248
:1009900000D00120704702460020D2680A4200D0F1
:1009A000012070474161704701617047002A01D002
:1009B0000161704741617047FEE7000010B500F02B
:1009C00017F80A494871487838B1012809D0022837
:1009D0000BD1BDE81040FFF7FFBEBDE81040FFF7A8
:1009E00041BEBDE81040FFF725BF10BD000000204C
:1009F0002DE9F0410025354C354E4FF4006739465E
:100A00003046FFF7C1FF78B91420FFF74EFF01E031
:100A1000641E7CB139463046FFF7B6FF0028F7D098
:100A20001420FFF742FF012502213046FFF7ACFFFB
:100A300030B115E01420FFF738FF0120BDE8F08148
:100A40001420FFF732FF01E0641E84B1022130461A
:100A5000FFF79AFF0028F7D01420FFF726FF0225A2
:100A60001C4E80213046FFF78FFF28B114E0142080
:100A7000FFF71BFF0220E1E71420FFF716FF01E05C
:100A8000641E7CB180213046FFF77EFF0028F7D03E
:100A90001420FFF70AFF032520213046FFF774FFDB
:100AA00028B111E01420FFF700FF0320C6E714204F
:100AB000FFF7FBFE20213046FFF766FF0028F9D044
:100AC0001420FFF7F2FE04252846B7E7C0270900E7
:100AD000000C01400008014038B50121042000F05D
:100AE0000FFB48248DF80340A020ADF8000003253B
:100AF0008DF8025069460A48FFF7F3FE01210820ED
:100B000000F0FEFA8DF8034040F60200ADF8000058
:100B10008DF8025069460348FFF7E3FE38BD000038
:100B200000080140000C014038B50121082000F008
:100B3000E7FA14208DF803004FF40044ADF80040AC
:100B400003208DF80200054D69462846FFF7C9FECF
:100B500021462846FFF728FF38BD0000000C014061
:100B6000FEE7000070B51A4CB4F9000000F017FC65
:100B7000184B1F251E2690B160880D280DD2DFE886
:100B800000F00C0A070A0C0A0C0A0A0C0A0C0A00EC
:100B90001D20987170BD9D7170BD9E7170BDB4F9BE
:100BA000000000F0FCFB0228F8D160880D280DD26F
:100BB000DFE800F00C0A070A0C0A0C0A0A0C0A0CFF
:100BC0000A001C20987170BD9D7170BD9E7170BD32
:100BD000100000200000002010B50121080700F0DF
:100BE00081FA0121C80600F07DFA012000F072FAB6
:100BF0000420FFF7A3FD4AF2A554A0421FD0012014
:100C000000F0A4FA412000F089FA0128FAD100028C
:100C100000F0B6FA012000F0ADFA00F01DFB00F084
:100C200013FB47F6FF7000F0FFFA00F00DFB00F039
:100C300031F82146BDE810400420FFF789BD00F0DF
:100C40000BFBBDE8104000F0FFBA000000B58DB00E
:100C500000F0B6FA00F5E1400C900CA8FFF7E6FAB8
:100C600001462C2201A8FFF7AFFA0699084801F2C5
:100C70006C7101800599491C418004998180039918
:100C8000C18002990181019941810DB000BD000030
:100C90001000002000B58BB00D480188A1F26C71E6
:100CA00005914188491E049181880391C188029170
:100CB00001890191408900906846FFF7DCFAA0F5B0
:100CC000E14000F0A1FA00F0BFFA0BB000BD000057
:100CD00010000020704770B500250021284600F064
:100CE000EDF80024002000F0E3F9641CE4B2802C4D
:100CF000F8D36D1CEDB2082DEFD370BD38B50121CE
:100D0000082000F0FDF914208DF8030003208DF871
:100D100002000002ADF80000074C69462046FFF7CC
:100D2000E0FD012211022046FFF740FE01225102A0
:100D30002046FFF73BFE38BD000C01402DE9F0478F
:100D400007460024134D4FF080094FF40078AE158C
:100D500029FA04F23A4041462846FFF727FE0122CD
:100D600031462846FFF722FE002231462846FFF78B
:100D70001DFE641CE4B2082CEAD301223146284649
:100D8000FFF714FE31462846BDE8F0470022FFF782
:100D90000DBE0000000C014070B501220B4D540245
:100DA00021462846FFF702FE012216023146284658
:100DB000FFF7FCFD002221462846FFF7F7FD3146EC
:100DC0002846BDE870400022FFF7F0BD000C01404E
:100DD00070B50A4D4FF40074002221462846FFF7F3
:100DE000E5FD012211022846FFF7E0FD21462846D5
:100DF000BDE870400122FFF7D9BD0000000C0140A2
:100E000010B500214FF47A720020401C9042FCD3B0
:100E1000491C9142F8D3FFF771FFAE2000F037F97B
:100E2000D52000F034F9802000F031F9A82000F03E
:100E30002EF93F2000F02BF9D32000F028F90020F4
:100E400000F025F9402000F022F9A12000F01FF960
:100E5000C82000F01CF9DA2000F019F9122000F087
:100E600016F9812000F013F9CF2000F010F9D920F5
:100E700000F00DF9F12000F00AF9DB2000F007F98D
:100E8000302000F004F9A42000F001F9A62000F0C1
:100E9000FEF88D2000F0FBF8142000F0F8F8AF20E9
:100EA00000F0F5F8BDE81040FFF715BF034601203C
:100EB00000E05843491E4A1CFBD1704710B50C4650
:100EC00040F0B00000F0E3F8102040EA141000F009
:100ED000DEF804F00F00BDE8104000F0D8B80000C4
:100EE00010B52D4C042306212288012000F09CF827
:100EF000628802230B21012000F096F8A2880223C9
:100F00000E21012000F090F80223E2880721184604
:100F100000F08AF8022322890A21184600F084F89A
:100F2000022362890D21184600F07EF81B4C2078C0
:100F300010B1FFF719FB11E00223A278072103206B
:100F400000F072F80223E2780A21032000F06CF826
:100F5000022322790D21032000F066F86078012831
:100F60000BD0022810D02178084314D10121BDE80C
:100F700010400BA2042000F077B80121BDE810401A
:100F80000BA2042000F070B80121BDE810400CA2B3
:100F9000042000F069B810BD1000002000000020FF
:100FA000204368616E676520416C61726D000000CE
:100FB000204368616E67652044617465200000000D
:100FC000204368616E676520436C6F636B000000AF
:100FD0002DE9F0411546491E461ECF007006F9B2B4
:100FE000000EFFF76BFF00240E48203D00EB0515B7
:100FF000285D00F05DF8641CE4B2082CF8D30120F1
:1010000000EB4600F9B2C0B2FFF758FF00242819E0
:10101000007A00F04DF8641CE4B2082CF7D3BDE868
:10102000F0810000341400082DE9F04781460F4696
:1010300090461E4600240A2512E0311B491E0A2054
:10104000FFF734FFB8FBF0F2B2FBF5F005FB10221E
:101050003819C1B230324846FFF7BAFF641CE4B217
:10106000B442EAD3BDE8F0872DE9F04107460D46CA
:101070001646002406E02819C1B23846FFF7A8FF3B
:10108000641CE4B2325D002AF5D1BDE8F08110B5F0
:101090000446FFF781FE7820FFF750FE0020FFF79F
:1010A0004DFE2046FFF74AFEBDE81040FFF790BE18
:1010B00010B50446FFF770FE7820FFF73FFE402092
:1010C000FFF73CFE2046FFF739FEBDE81040FFF772
:1010D0007FBE0000014908627047000000000E4218
:1010E00070470000054A002903D0D1690143D1614E
:1010F0007047D1698143D161704700000010024000
:10110000054A002903D091690143916170479169B3
:1011100081439161704700000010024003460020A7
:101120005909094A01290AD002290AD0516A03F053
:101130001F02012393400B4200D001207047116829
:10114000F5E7116AF3E700000010024008490022A9
:101150000A7001F82029012805D0042802D10520B1
:1011600081F820007047012081F8200070470000BE
:101170002010024001490860704700003C044242D0
:1011800002490A6A02430A627047000000100240E6
:1011900002490A8882430A80704700000428004000
:1011A0000248018841F01001018070470428004086
:1011B0000248018821F01001018070470428004096
:1011C000034800880249091F098840EA0140704726
:1011D0001C28004001460020024A12880A4200D022
:1011E000012070470428004000B50246FFF7D8FFF1
:1011F0000449100C0880081D02805DF804EBFFF71D
:10120000D7BF00002028004000B50246FFF7C8FF06
:101210000449100C0880081D02805DF804EBFFF7FC
:10122000C7BF00001828004000B50246FFF7B8FF0E
:101230000449C2F303400880081D02805DF804EBF6
:10124000FFF7B6BF08280040024801888906FCD590
:1012500070470000042800400448018821F008017C
:10126000018001880907FCD5704700000428004070
:101270004FF400410148FFF797BB0000000C01400C
:101280004FF400410148FFF78DBB0000000C014006
:10129000704700F001B800000CB5002201920092E6
:1012A0002748016841F4803101604FF4A063016870
:1012B00001F4003100910199491C0191009911B983
:1012C00001999942F3D10168890302D50121009166
:1012D00000E000920099012930D11A490A6842F0D1
:1012E00010020A600A6822F003020A600A6842F0EB
:1012F00002020A604168416041684160416841F40E
:1013000080614160416821F47C114160416841F491
:10131000E8114160016841F0807101600168890154
:10132000FCD5416821F003014160416841F00201B0
:1013300041604168C1F381010229FAD10CBD00006E
:1013400000100240002002407047000010B50F4816
:10135000016841F00101016041680D4A114041609E
:1013600001680C4A11400160016821F4802101608C
:10137000416821F4FE0141604FF41F018160FFF7D5
:1013800088FF05494FF00060086010BD0010024062
:101390000000FFF8FFFFF6FE08ED00E0FEE7810722
:1013A00005D1642190FBF1F201FB120141B94FF428
:1013B000C87190FBF1F201FB120008B102207047E6
:1013C00001207047FFF7B0FBFFF71AFDFFF704FCA1
:1013D000FFF782FBFFF7C8F901210AA20846FFF7D1
:1013E00043FE0CA201210220FFF73EFE0DA20121C7
:1013F0000320FFF739FEFFF729FCFFF7DFFAFFF7BD
:101400006FFDF8E7446174653A585858582F58589A
:101410002F585800436C6F636B3A58583A58583AF3
:1014200058580000416C61726D3A58583A58583A11
:1014300058580000000000000000000000000000FC
:1014400000000000000000F8000000000000003371
:101450003000000000100C06100C06000000000018
:101460000000000040C07840C0784000043F040401
:101470003F040400007088FC08300000001820FFC2
:10148000211E0000F008F000E018000000211C03FD
:101490001E211E0000F00888700000001E21232479
:1014A0001927211010160E00000000000000000097
:1014B00000000000000000E0180402000000000727
:1014C0001820400000020418E0000000004020182E
:1014D00007000000404080F0804040000202010F01
:1014E00001020200000000F0000000000101011FE5
:1014F00001010100000000000000000080B0700049
:1015000000000000000000000000000000010101D8
:101510000101010100000000000000000030300067
:101520000000000000000000806018040060180641
:101530000100000000E010080810E000000F10207B
:1015400020100F00001010F8000000000020203FC5
:10155000202000000070080808887000003028244F
:1015600022213000003008888848300000182020F0
:1015700020110E000000C02010F800000007042415
:10158000243F240000F8088888080800001921205A
:1015900020110E0000E0108888180000000F1120B4
:1015A00020110E0000380808C83808000000003F6D
:1015B000000000000070880808887000001C2221CC
:1015C00021221C0000E010080810E0000000312279
:1015D00022110F00000000C0C00000000000003019
:1015E000300000000000008000000000000080606B
:1015F00000000000000080402010080000010204EC
:1016000008102000404040404040400004040404D2
:10161000040404000008102040800000002010088E
:1016200004020100007048080808F00000000030C3
:1016300036010000C030C828E810E0000718272451
:1016400023140B000000C038E0000000203C2302FF
:101650000227382008F8888888700000203F202062
:1016600020110E00C0300808080838000718202094
:101670002010080008F808080810E000203F20208B
:1016800020100F0008F88888E8081000203F20206C
:101690002320180008F88888E8081000203F200060
:1016A00003000000C0300808083800000718202098
:1016B000221E020008F808000008F808203F210157
:1016C00001213F20000808F8080800000020203F02
:1016D0002020000000000808F8080800C080808072
:1016E0007F00000008F888C028180800203F20016B
:1016F0002638200008F8080000000000203F2020C5
:101700002020300008F8F800F8F80800203F003FDB
:10171000003F200008F830C00008F808203F2000F3
:1017200007183F00E01008080810E0000F10202004
:1017300020100F0008F808080808F000203F2101D9
:1017400001010000E01008080810E0000F18242430
:1017500038504F0008F8888888887000203F2000A3
:10176000030C302000708808080838000038202159
:1017700021221C00180808F8080818000000203F63
:101780002000000008F808000008F808001F2020CA
:1017900020201F000878880000C83808000007389B
:1017A0000E010000F80800F80008F800033C0700EC
:1017B000073C0300081868808068180820302C0354
:1017C000032C30200838C800C83808000000203F2B
:1017D0002000000010080808C8380800203826211A
:1017E00020201800000000FE020202000000007F1E
:1017F00040404000000C30C000000000000000012C
:101800000638C00000020202FE0000000040404016
:101810007F0000000000040202020400000000003B
:1018200000000000000000000000000080808080B8
:1018300080808080000202040000000000000000A0
:101840000000000000008080808000000019242239
:1018500022223F2008F8008080000000003F112075
:1018600020110E000000008080800000000E11207A
:1018700020201100000000808088F800000E112058
:1018800020103F200000808080800000001F222266
:1018900022221300008080F0888888180020203FD2
:1018A000202000000000808080808000006B9494E5
:1018B0009493600008F8008080800000203F2100A1
:1018C00000203F2000809898000000000020203F6A
:1018D00020200000000000809898000000C0808058
:1018E000807F000008F8000080808000203F2402F4
:1018F0002D302000000808F8000000000020203FE4
:10190000202000008080808080808000203F200098
:101910003F20003F8080008080800000203F210029
:1019200000203F200000808080800000001F2020D9
:1019300020201F00808000808000000080FFA12008
:1019400020110E000000008080808000000E112019
:1019500020A0FF80808080008080800020203F21A8
:10196000200001000000808080808000003324245B
:1019700024241900008080E0808000000000001F07
:10198000202000008080000000808000001F2020B8
:1019900020103F20808080000080808000010E3079
:1019A0000806010080800080008080800F300C03DA
:1019B0000C300F0000808000808080000020312EDD
:1019C0000E312000808080000080808080818E70B9
:1019D0001806010000808080808080000021302C6B
:1019E0002221300000000000807C02020000000084
:1019F000003F404000000000FF0000000000000029
:101A0000FF0000000002027C800000000040403F18
:101A100000000000000601010202040400000000B2
:101A2000000000001F1D1F1E1F1E1F1F1E1F1E1F48
:101A3000501A0008000000201C00000028010008C7
:101A40006C1A00081C0000208C06000044010008ED
:101A50000000000000000000000000000000000086
:0C1A6000E90706000C0008000000000070
:04000005080000ED02
:00000001FF
