:020000040800F2
:10000000E84B002021020008D10C0008E909000893
:10001000650B0008B50700088D14000800000000FB
:10002000000000000000000000000000890100083E
:100030001109000800000000CD0100085513000858
:100040003B0200083B0200083B0200083B0200089C
:100050003B0200083B0200083B0200083B0200088C
:100060003B0200083B0200083B0200083B0200087C
:100070003B0200083B0200083B0200083B0200086C
:100080003B0200083B0200083B0200083B0200085C
:100090003B0200083B0200083B0200083B0200084C
:1000A0003B0200083B0200083B0200083B0200083C
:1000B0003B0200083B0200083B0200083B0200082C
:1000C0003B0200083B0200083B0200083B0200081C
:1000D0003B0200083B0200083B0200083B0200080C
:1000E0003B0200083B0200083B02000800F002F857
:1000F00000F03AF80AA090E8000C82448344AAF188
:100100000107DA4501D100F02FF8AFF2090EBAE885
:100110000F0013F0010F18BFFB1A43F0010318473B
:100120003823000058230000103A24BF78C878C153
:10013000FAD8520724BF30C830C144BF04680C60ED
:10014000704700000023002400250026103A28BF35
:1001500078C1FBD8520728BF30C148BF0B60704739
:100160001FB51FBD10B510BD00F010FA1146FFF706
:10017000F7FF01F0A5F900F02EFA03B4FFF7F2FF44
:1001800003BC00F035FA0000224B19680868B0E89B
:10019000F00F80F30988BFF36F8F4FF0000080F3FA
:1001A00011884EF00D0E70470000000006480068F0
:1001B000006880F3088862B661B6BFF34F8FBFF363
:1001C0006F8F00DF00BF00BF08ED00E0EFF3098094
:1001D000BFF36F8F0F4B1A6820E9F00F106008B55E
:1001E0004FF0BF0080F31188BFF34F8FBFF36F8FC5
:1001F00001F0ACFC4FF0000080F31188BDE808402E
:1002000019680868B0E8F00F80F30988BFF36F8FB2
:10021000704700BF54000020EFF3058070470000D6
:100220000948804709480047FEE7FEE7FEE7FEE78A
:10023000FEE7FEE7FEE7FEE7FEE7FEE704480549C6
:10024000054A064B7047000081130008ED000008C6
:10025000E8450020E84B0020E8470020E847002060
:1002600010B5203AC0F00B80B1E81850203AA0E851
:100270001850B1E81850A0E81850BFF4F5AF5FEA85
:10028000027C24BFB1E81850A0E8185044BF18C938
:1002900018C0BDE810405FEA827C24BF51F8043BDF
:1002A00040F8043B08BF7047D20728BF31F8023B33
:1002B00048BF11F8012B28BF20F8023B48BF00F8C7
:1002C000012B70474FF0000200B513469446964646
:1002D000203922BFA0E80C50A0E80C50B1F1200159
:1002E000BFF4F7AF090728BFA0E80C5048BF0CC007
:1002F0005DF804EB890028BF40F8042B08BF704765
:1003000048BF20F8022B11F0804F18BF00F8012BD6
:1003100070470000014900F0DDB800005C45002096
:1003200010B503681C1404EB21449BB289B2194434
:1003300094FBF2F302FB134394FBF2F401EB03434F
:1003400093FBF2F102FB113193FBF2F301E05B1E30
:1003500011440029FBDB016003EB044010BDF0B544
:1003600004464FF0FF3585B0006804906068029045
:10037000A0680390E068019020690090666906F12A
:100380008040B0F1004F7CD83C22002104A8FFF748
:10039000C7FF3C22014602A8FFF7C2FF1822014610
:1003A00003A8FFF7BDFF411E40F2B55201A8FFF7B9
:1003B000B7FF0C22074668460021FFF7B1FF414B0B
:1003C00000EB8700304400267B4411E0511A019174
:1003D0000099491C0229009102D00C2908D105E09E
:1003E000810705D00199491C019101E0401C00964C
:1003F0000099019A595C9142E8DD0099012906D1E2
:100400001C2A04D1810702D00221CDE90016A0F1F7
:1004100046018B293CD2DDE90061002202E09F5CAD
:10042000521C3944B242FADB012E02DD820700D0B1
:10043000491E40F2B55340F26D16C21700EB92729E
:1004400092105A4300F0030303FB062283070A4479
:1004500000D1521E039E02EB4203049F06EBC3032E
:10046000029EC3EB031306EB8303174E33441E14A3
:100470009BB2C6EB0616C3EB0313B60007EB830370
:1004800000E005E006EB134666F31F43360C02D08E
:10049000284605B0F0BD80C4029E40C4039E40C4FF
:1004A000019E761C44F80C6B009E44E90260072014
:1004B000521C92FBF0F600FB162084E8230018463D
:1004C000E7E7000080200000A039CEFD70477047AC
:1004D0007047000070B50C46016800204A1C3ED0F1
:1004E0003C22B1FBF2F302FB1313B1FBF2F12360E8
:1004F000B1FBF2F302FB1313B1FBF2F118226360BC
:10050000B1FBF2F302FB1313B1FBF2F146F2E0325E
:100510000A440721A360B2FBF1F301FB132140F26F
:10052000B553B2FBF3F5A161B2FBF3F103FB152266
:100530008900B2F5B77F08D39B10521EB2FBF3F5CA
:100540002944B2FBF3F503FB15220F4BE261616115
:1005500089077B440CD03B2A0AD3521C08E02C218B
:100560002046FFF7AFFE0120E0600AE0521A401C6F
:10057000195C9142FAD9521CC4E903204FF0FF30B4
:100580002062204670BD0000F61E0000754600F097
:100590002BF8AE4605006946534620F00700854615
:1005A00018B020B5FFF74AFEBDE820404FF0000626
:1005B0004FF000074FF000084FF0000B21F007014B
:1005C000AC46ACE8C009ACE8C009ACE8C009ACE88E
:1005D000C0098D46704710B50446AFF30080204631
:1005E000BDE81040FFF7C9BD0048704788450020AE
:1005F00001491820ABBEFEE726000200704700004C
:1006000070B532494FF46160CA884243088949890C
:10061000C0EB001002EB800008442D4D4FF46161E7
:100620002A784A436978C1EB011102EB8101AA786B
:100630001144814201D90C1A02E0264A101A4418CA
:100640004FF4616694FBF6F202230721032000F0C9
:10065000F5FC94FBF6F006FB10403C2690FBF6F20E
:1006600002230A21032000F0E9FC94FBF6F006FBCC
:10067000104202230D21032000F0E0FC022000F0D4
:10068000B1FD012806D0BDE87040012112A204206E
:1006900000F0F4BC2879002816D1022000F080FD7B
:1006A0000120287110A20121042000F0E7FC00F0D5
:1006B000A5F800F0EDFD00F08BFDA8600020E870CB
:1006C000286128706870A87070BD000026000020A6
:1006D000100000208051010020202020436F756E03
:1006E00074696E67202020002020202054696D65E9
:1006F000204F75742020200070B51D4800251D4C2A
:100700000078012804D002280AD0032810D016E06F
:100710002178491CC9B22170172910D925700EE023
:100720006178491CC9B261703B2908D9657006E03F
:10073000A178491CC9B2A1703B2900D9A570042831
:1007400014D100F063F868B125706570A57000F0F1
:100750004DF800F095FDBDE87040012106A204208F
:1007600000F08CBCBDE8704000F032BE70BD0000EF
:100770000D0000201000002020202020202020201C
:1007800020202020202020200000000008B5034960
:10079000084400900098008808BD0000006C0040EC
:1007A00008B5034A104400900098016008BD00009D
:1007B000006C0040FEE7000038B50121082000F081
:1007C000A7FC10208DF803000402ADF800400320C0
:1007D0008DF80200044D6946284600F09AF821463B
:1007E000284600F0F9F838BD000C01404FF4805164
:1007F000014800F0F1B80000000C01404FF48051B6
:10080000014800F0E7B80000000C014010B54FF4BB
:100810008051044800F0D7F808B1002010BD012035
:1008200010BD0000000C0140114812490078012859
:100830000DD0022810D0032813D0042816D10E4959
:100840000020087001210DA2042000F017BCC88808
:10085000401CC88000F01CBA0889401C088100F0C8
:1008600017BA4889401C488100F012BA704700004E
:100870000D000020260000200C0000202020202059
:1008800020202020202020202020202000000000E8
:1008900070B51B4D1B4C287801280CD12088401CBA
:1008A00080B2208040F2F371884202D940F2DF70BA
:1008B000208000F0EDF928780126022808D1608810
:1008C000401C80B260800C2800D9668000F0E0F9FE
:1008D000287803280CD100F047F9A088401C80B28A
:1008E000A08009490978884200D9A68000F0D0F993
:1008F0002878042802D105490220087070BD000044
:100900000D00002026000020240000200C00002004
:1009100070472DE9F0410022CC7804F00F03E40683
:1009200001D58C7823430C784FF00F0714F0FF0F9C
:100930004FF0010C1CD005680CFA02F40E8826401A
:10094000A64211D1960007FA06F825EA080503FA2F
:1009500006F848EA0505CE78282E02D0482E02D0A7
:1009600002E0446100E00461521C082AE4D30560FF
:100970000A88FF2A1ED94568002202F108060CFAEF
:1009800006F40E882640A64210D1960007FA06F813
:1009900025EA080503FA06F848EA0505CE78282E68
:1009A00000D14461CE78482E00D10461521C082A3F
:1009B000E3D34560BDE8F0810246002092680A4218
:1009C00000D00120704702460020D2680A4200D0C1
:1009D000012070474161704701617047002A01D0D2
:1009E0000161704741617047FEE7000010B500F0FB
:1009F00017F80A494870087838B1012809D0022848
:100A00000BD1BDE81040FFF70FBFBDE81040FFF766
:100A100073BEBDE81040FFF73BBF10BD0C000020C7
:100A2000F8B500242A4D4FF400612846FFF7C4FFB3
:100A30008DF8000002212846FFF7BEFF8DF8010067
:100A4000244D80212846FFF7B7FF8DF802002021B2
:100A50002846FFF7B1FF8DF8030000211E4800264D
:100A60006B46051F6A5C012A01D15F5C0FB11AB1A8
:100A700004E020F8116022E05F5C0FB1A2B11EE03B
:100A800030F811200F2A04D202F1010220F81120BF
:100A900015E014D101F10102D2B242F080044FF00E
:100AA000100220F811200AE05A5C012A07D130F820
:100AB00011200F2A01D24A1CD4B220F811605A5CCE
:100AC0006A54491CC9B20429CCD32046F8BD0000A1
:100AD000000C0140000801400400002038B501214D
:100AE000042000F015FB48248DF80340A020ADF849
:100AF000000003258DF8025069460A48FFF709FFF8
:100B00000121082000F004FB8DF8034040F60200AC
:100B1000ADF800008DF8025069460348FFF7F9FE72
:100B200038BD000000080140000C014038B501212B
:100B3000082000F0EDFA14208DF803004FF4004473
:100B4000ADF8004003208DF80200054D69462846A7
:100B5000FFF7DFFE21462846FFF73EFF38BD0000C5
:100B6000000C0140FEE7000010B5184BB3F900007F
:100B700000F08DFC1F241E22154901280BD0588837
:100B80000D2820D2DFE800F01F1D1A1D1F1D1F1D9C
:100B90001D1F1D1F1D0058880D280DD2DFE800F015
:100BA0000C0A070A0C0A0C0A0A0C0A0C0A001D207F
:100BB000087010BD0C7010BD0A7010BD1C200870AC
:100BC00010BD0C7010BD0A7010BD00002600002082
:100BD0002400002010B50121080700F08BFA012144
:100BE000C80600F087FA012000F07EFA0420FFF723
:100BF000CDFD4AF2A554A0421FD0012000F0AEFA6C
:100C0000412000F093FA0128FAD1000200F0C0FA66
:100C1000012000F0B7FA00F027FB00F01DFB47F6BB
:100C2000FF7000F009FB00F017FB00F031F82146DF
:100C3000BDE810400420FFF7B3BD00F015FBBDE890
:100C4000104000F009BB000000B58DB000F0C0FA04
:100C500000F5E1400C900CA8FFF75CFB01462C224C
:100C600001A8FFF7FDFA0699084801F26C710180AE
:100C70000599491C4180049981800399C18002999A
:100C80000181019941810DB000BD000026000020C6
:100C900000B58BB00D480188A1F26C7105914188B7
:100CA000491E049181880391C188029101890191B3
:100CB000408900906846FFF752FBA0F5E14000F044
:100CC000ABFA00F0C9FA0BB000BD0000260000200E
:100CD000704770B500250021284600F0EDF800248B
:100CE000002000F0EFF9641CE4B2802CF8D36D1CF6
:100CF000EDB2082DEFD370BD38B50121082000F00A
:100D000007FA14208DF8030003208DF8020000027A
:100D1000ADF80000074C69462046FFF7FAFD0122B6
:100D200011022046FFF75AFE012251022046FFF72A
:100D300055FE38BD000C01402DE9F0470746002460
:100D4000134D4FF080094FF40078AE1529FA04F2E4
:100D50003A4041462846FFF741FE012231462846E7
:100D6000FFF73CFE002231462846FFF737FE641CA1
:100D7000E4B2082CEAD3012231462846FFF72EFEC2
:100D800031462846BDE8F0470022FFF727BE0000A5
:100D9000000C014070B501220B4D5402214628463B
:100DA000FFF71CFE0122160231462846FFF716FE09
:100DB000002221462846FFF711FE31462846BDE8AD
:100DC00070400022FFF70ABE000C014070B50A4DCA
:100DD0004FF40074002221462846FFF7FFFD012250
:100DE00011022846FFF7FAFD21462846BDE870406B
:100DF0000122FFF7F3BD0000000C014010B50021F7
:100E00004FF47A720020401C9042FCD3491C91425E
:100E1000F8D3FFF771FFAE2000F043F9D52000F0C2
:100E200040F9802000F03DF9A82000F03AF93F2079
:100E300000F037F9D32000F034F9002000F031F948
:100E4000402000F02EF9A12000F02BF9C82000F07E
:100E500028F9DA2000F025F9122000F022F981208B
:100E600000F01FF9CF2000F01CF9D92000F019F98B
:100E7000F12000F016F9DB2000F013F9302000F02B
:100E800010F9A42000F00DF9A62000F00AF98D2039
:100E900000F007F9142000F004F9AF2000F001F988
:100EA000BDE81040FFF715BF0346012000E058439E
:100EB000491E4A1CFBD1704710B50C4640F0B000EB
:100EC00000F0EFF8102040EA141000F0EAF804F007
:100ED0000F00BDE8104000F0E4B8000010B52F4C42
:100EE000042306212288012000F0A8F8628802234A
:100EF0000B21012000F0A2F8A28802230E2101207C
:100F000000F09CF80223E2880721184600F096F8CA
:100F1000022322890A21184600F090F802236289F0
:100F20000D21184600F08AF81D4C207810B1FFF70B
:100F300067FB14E01B48022307210278032000F01E
:100F40007DF8194802230A210278032000F076F880
:100F5000164802230D210278032000F06FF8144890
:100F6000007801280BD0022810D02178084314D132
:100F70000121BDE810400FA2042000F07FB801213C
:100F8000BDE810400FA2042000F078B80121BDE8B0
:100F9000104010A2042000F071B810BD26000020FF
:100FA000130000201000002011000020120000207B
:100FB0000C000020204368616E676520416C6172FF
:100FC0006D000000204368616E67652044617465B0
:100FD00020000000204368616E676520436C6F63EA
:100FE0006B0000002DE9F0411546491E461ECF005A
:100FF0007006F9B2000EFFF75FFF00240E48203D97
:1010000000EB0515285D00F05DF8641CE4B2082CC7
:10101000F8D3012000EB4600F9B2C0B2FFF74CFF55
:1010200000242819007A00F04DF8641CE4B2082C62
:10103000F7D3BDE8F08100005C1E00082DE9F04701
:1010400081460F4690461E4600240A2512E0311BB9
:10105000491E0A20FFF728FFB8FBF0F2B2FBF5F0BB
:1010600005FB10223819C1B230324846FFF7BAFFEB
:10107000641CE4B2B442EAD3BDE8F0872DE9F04144
:1010800007460D461646002406E02819C1B2384628
:10109000FFF7A8FF641CE4B2325D002AF5D1BDE879
:1010A000F08110B50446FFF775FE7820FFF744FE87
:1010B0000020FFF741FE2046FFF73EFEBDE810404E
:1010C000FFF784BE10B50446FFF764FE7820FFF7F3
:1010D00033FE4020FFF730FE2046FFF72DFEBDE82F
:1010E0001040FFF773BE000001490862704700001E
:1010F00000000E42054A002903D0D1690143D161A5
:101100007047D1698143D1617047000000100240EF
:10111000054A002903D091690143916170479169A3
:101120008143916170470000001002400346002097
:101130005909094A01290AD002290AD0516A03F043
:101140001F02012393400B4200D001207047116819
:10115000F5E7116AF3E70000001002400849002299
:101160000A7001F82029012805D0042802D10520A1
:1011700081F820007047012081F8200070470000AE
:101180002010024001490860704700003C044242C0
:1011900002490A6A02430A627047000000100240D6
:1011A00002490A8882430A807047000004280040F0
:1011B0000248018841F01001018070470428004076
:1011C0000248018821F01001018070470428004086
:1011D000034800880249091F098840EA0140704716
:1011E0001C28004001460020024A12880A4200D012
:1011F000012070470428004000B50246FFF7D8FFE1
:101200000449100C0880081D02805DF804EBFFF70C
:10121000D7BF00002028004000B50246FFF7C8FFF6
:101220000449100C0880081D02805DF804EBFFF7EC
:10123000C7BF00001828004000B50246FFF7B8FFFE
:101240000449C2F303400880081D02805DF804EBE6
:10125000FFF7B6BF08280040024801888906FCD580
:1012600070470000042800400448018821F008016C
:10127000018001880907FCD5704700000428004060
:101280004FF400410148FFF7A7BB0000000C0140EC
:101290004FF400410148FFF79DBB0000000C0140E6
:1012A000AFF300800CB5002201920092274801683C
:1012B00041F4803101604FF4A063016801F4003112
:1012C00000910199491C0191009911B90199994224
:1012D000F3D10168890302D50121009100E0009259
:1012E0000099012930D11A490A6842F010020A60B7
:1012F0000A6822F003020A600A6842F002020A60E9
:101300004168416041684160416841F480614160E9
:10131000416821F47C114160416841F4E811416069
:10132000016841F08071016001688901FCD5416864
:1013300021F003014160416841F0020141604168D0
:10134000C1F381010229FAD10CBD00000010024056
:101350000020024010B5BF2080F31188BFF34F8FEB
:10136000BFF36F8F00F062FC18B104494FF080505A
:101370000860002080F3118810BD000004ED00E03B
:1013800010B50F48016841F00101016041680D4A44
:101390001140416001680C4A11400160016821F46C
:1013A00080210160416821F4FE0141604FF41F017A
:1013B0008160FFF775FF05494FF00060086010BDC0
:1013C000001002400000FFF8FFFFF6FE08ED00E00D
:1013D00070B5164D4FF46160297841436878C0EBD1
:1013E000001001EB8000A97808442861104A4FF4EE
:1013F0006161D3884B4311895289C1EB011103EB21
:1014000081011144884201D9441A02E0094A511A63
:101410000C18012638B1FFF7DBFE2044E860FFF727
:10142000EBFEEE7070BD0448067070BD1000002029
:1014300026000020805101000C00002000F004F87C
:10144000C82000F039FBF9E710B50A4C20790028D4
:101450000FD0FFF7BDFEA16888420AD0FFF7C6F99A
:10146000FFF70EFF04A201210420FFF707FE002072
:10147000207110BD100000202020202020202020DE
:10148000202020202020202000000000FEE78107EF
:1014900005D1642190FBF1F201FB120141B94FF437
:1014A000C87190FBF1F201FB120008B102207047F5
:1014B00001207047FFF79AFA142000F0FDFAF9E7CF
:1014C0001CB5FFF733FBFFF799FCFFF783FBFFF732
:1014D00005FBFFF771F901211AA20846FFF7CEFDBF
:1014E0001CA201210220FFF7C9FD1EA20121032039
:1014F000FFF7C4FD00240120CDE90004234680222B
:101500001CA11D4800F05EFB0320CDE90004002370
:1015100080221AA11A4800F055FB0225CDE900549B
:101520000023802217A1194800F04CFBCDE900549C
:101530000023802216A1184800F044FB00F0D6FAE0
:10154000FEE70000446174653A585858582F5858BF
:101550002F585800436C6F636B3A58583A58583AB2
:1015600058580000416C61726D3A58583A58583AD0
:101570005858000052544300A51900084B45590023
:10158000B51400084F4C4544000000009D150008AC
:10159000414C41524D0000003D140008FFF79EFCF5
:1015A000C82000F089FAF9E72DE9F04104460F461A
:1015B0001E4DEE682868001D00F0FCF938B9286857
:1015C00090F82C1001208840296981432961601C12
:1015D00015D1A7B1164948682A68906082682B68BF
:1015E000DA602A688368121D5A602A68121D8260B8
:1015F000286841610868401C0860BDE8F0813444F7
:1016000028684460B44206D22968E86B091DBDE829
:10161000F04100F0F0B92968A86B091D00F0EBF962
:10162000A86A8442E9D2AC62E7E7000054000020D7
:101630004845002070B5044600F0F6F9244DA8682E
:10164000401CA860286810B1686938B10CE02C60B3
:10165000A868012808D100F0D9F805E02868E16AF7
:10166000C06A884200D82C60686A401C6862E06AE0
:1016700001212A69814011432961164A00EB80004B
:1016800002EB80004068A0608168E1608368211DF2
:1016900059608160E06A00EB800002EB80016161CB
:1016A00052F82010491C42F8201000F0CBF968696C
:1016B00000280CD02868E16AC06A884207D206492F
:1016C0004FF080500860BFF34F8FBFF36F8F70BD36
:1016D000540000209444002004ED00E070B50C4D4F
:1016E0000C4E11E000F0A0F9F068C468201D00F075
:1016F00061F9A868401EA8606868401E686000F034
:10170000A1F9204600F008F868680028EAD170BD09
:10171000540000203445002010B50446206B00F032
:101720009DF92046BDE8104000F098B94FF488417B
:101730000E48420706D0C01D20F007000B49411A91
:10174000C1F588410A4B186000225A6001440839EB
:1017500021F00701143B19604A600A600A1A4260CE
:101760000160406898605860704700009400002055
:1017700048000020074E4FF08054074DFFF7AEFFA2
:1017800030680128FAD92C60BFF34F8FBFF36F8FF9
:10179000F4E700009444002004ED00E02DE9F04758
:1017A0008146DDE908560A9C9846521E206B00EBE4
:1017B000820020F0070700290CD0002023180A5CC3
:1017C00083F834200A5C12B1401C1028F6D30020A4
:1017D00084F84300052D00D30425E562201D00F0A8
:1017E00007F904F1180000F003F92461C5F10500C0
:1017F000A061646242464946384600F0C5F8206060
:10180000002E00D03460BDE8F087000070B50024E1
:10181000124D04EB840005EB800000F0DEF8641C40
:10182000052CF6D30D48643000F0D7F80B4878301B
:1018300000F0D3F809488C3000F0CFF80748A0300A
:1018400000F0CBF80548B43000F0C7F8034904486D
:10185000643181631431C16370BD00009444002081
:101860005400002030B5134900E011460A68824256
:10187000FBD34B685C18844203D14068184448602D
:1018800008460D6844682318AB420DD1094B143B40
:101890001B689A4206D05268224442600A68126865
:1018A000026002E0036000E00260814200D0086054
:1018B00030BD0000480000200648816B09680029FF
:1018C00004D0816BC9680968816270474FF0FF31AD
:1018D0008162704754000020BF2080F31188BFF35D
:1018E0004F8FBFF36F8FFEE72DE9F04105460026CD
:1018F00000F024F9234F386808B9FFF717FF4DB1FE
:1019000005F00700C0F11000C1438D4201D8054425
:1019100000E00025002D2FDD786885422CD819497C
:1019200014310846046801E0214604466068A84274
:1019300002D220680028F7D1386884421CD00E6893
:101940000836206808606068411B102904D96019B6
:1019500041606560FFF786FF61687868401A7860CB
:10196000BA68904200D2B86041F000406060002048
:101970002060F868401CF86000F0E6F93046BDE8E9
:10198000F08100003400002020384FF08073C361E4
:1019900021F0010181610249416140F8202970472D
:1019A000D91800084FF47A74FFF74EF9204600F07A
:1019B00083F8F9E70169D0E901329A60D0E901239F
:1019C0005A604A68824201D182684A6000220261FC
:1019D0000868401E08600868704700F1080141600F
:1019E0004FF0FF328260C1600161002101607047E9
:1019F00000210161704730B50C68621C02D000F113
:101A0000080202E0026904E01A4653681D68A54214
:101A1000FAD953684B6099608A6051600861016827
:101A2000491C016030BD0000BF2080F31188BFF366
:101A30004F8FBFF36F8F02480168491C01607047E8
:101A40005000002004490868401E0860002801D1A9
:101A500080F31188704700005000002070B5002806
:101A60001BD0083804466068002816DA216800296F
:101A700013D120F00040606000F060F8074D60680E
:101A80006968084468602046FFF7ECFE2869401C3E
:101A90002861BDE8704000F057B970BD34000020E7
:101AA0004FF0E0200021016181610249416107217D
:101AB000016170473F19010010B502460020002A5D
:101AC00007D000F03BF800211046FFF76DFD00F055
:101AD0003BF9002807D104494FF080500860BFF35C
:101AE0004F8FBFF36F8F10BD04ED00E07CB50F4842
:101AF0000025CDE900502B4680220DA10E4800F0B4
:101B000061F80A4C2C3C01280ED1BF2080F31188CB
:101B1000BFF34F8FBFF36F8F4FF0FF30A0620120F4
:101B20006061E56000F036F8206B7CBD800000202D
:101B300049444C4500000000751700080248416BFD
:101B4000491C416370470000540000200F4A506B4D
:101B5000002802D00120D06170470020D0611069B8
:101B6000B0FA80F0C0F11F00094900EB800001EBE2
:101B7000800041684968416000F10803994201D141
:101B8000496841604068C068106070475400002098
:101B90009444002010B50948016841F47F010160B8
:101BA000016841F07F410160FFF77AFF044900209E
:101BB0000860FEF7FBFA002010BD000020ED00E0F9
:101BC000500000202DE9FF5F8146DDE90E788A464E
:101BD00016469B46B000FFF787FE054628000ED04C
:101BE0004C20FFF781FE04462CB14C212046FEF725
:101BF00069FB256304E02846FFF730FF00E000247E
:101C00008CB10020CDE90240CDE900785B46324638
:101C100051464846FFF7C2FD2046FFF70BFD012065
:101C200004B0BDE8F09F4FF0FF30F9E72DE9F04137
:101C30000025434E706B002805D0B069401CB06190
:101C40002846BDE8F081F468641CF46044B9B06BC8
:101C5000F16BB163F063306A401C3062FFF72CFE19
:101C6000B06A384F84420FD34FF0000CB06B00685D
:101C700038B1B06BC068C1684868844212D2B062A3
:101C800002E04FF0FF30B0623068C06A00EB8000C5
:101C900057F82000012800D90125F0690028CFD08D
:101CA0000125CDE74A69D1E902309860D1E9020304
:101CB000586050680B1D984201D1C8685060C1F847
:101CC00014C01068401E10608A6A9AB1D1E907807A
:101CD000C8F80800D1E90708C8F80400506801F105
:101CE0001808404501D1086A5060C1F828C0106842
:101CF000401E1060C86A0122D6F81080824042EA75
:101D00000802326100EB800007EB800042688A60C5
:101D10009068C860906843609360C86A00EB800078
:101D200007EB80024A6157F82020521C47F8202018
:101D3000C86A3168C96A884298D9012596E70000C7
:101D400054000020944400202DE9F0410024A046D6
:101D5000FFF76AFE3E4D686B401E6863686B0028A3
:101D600071D1A86800286ED000273A4A01264EE0BB
:101D7000D068C468A16AD4E907309860D4E9070341
:101D800058604B6804F11800834201D1206A486012
:101D9000A7620868401E08606169D4E90230986053
:101DA000D4E9020358604B68201D834201D1E368E7
:101DB0004B6067610B685B1E0B60E16AD5F810C071
:101DC00006FA01F343EA0C032B61224B01EB81017C
:101DD0008C3B03EB81014968A160D1F808C0C4F8CD
:101DE0000CC0D1F808C0CCF804008860E06A00EBB1
:101DF000800003EB8001616153F82010491C43F817
:101E00002010E06A2968C96A884200D3EE61106830
:101E10000028ADD10CB1FFF74FFDAC693CB1FFF725
:101E200005FF00B1EE61641E002CF8D1AF61E869D6
:101E300048B14FF0010808494FF080500860BFF3E7
:101E40004F8FBFF36F8FFFF7FDFD4046BDE8F08178
:101E5000540000202045002004ED00E000000000B8
:101E6000000000000000000000000000000000F87A
:101E700000000000000000333000000000100C06DD
:101E8000100C0600000000000000000040C0784078
:101E9000C0784000043F04043F040400007088FC44
:101EA00008300000001820FF211E0000F008F0009C
:101EB000E018000000211C031E211E0000F008880D
:101EC000700000001E2123241927211010160E0077
:101ED000000000000000000000000000000000E022
:101EE0001804020000000007182040000002041837
:101EF000E00000000040201807000000404080F093
:101F0000804040000202010F01020200000000F0C8
:101F1000000000000101011F01010100000000009C
:101F20000000000080B07000000000000000000011
:101F3000000000000001010101010101000000009A
:101F40000000000000303000000000000000000031
:101F500080601804006018060100000000E010080E
:101F60000810E000000F102020100F00001010F8E3
:101F7000000000000020203F202000000070080822
:101F800008887000003028242221300000300888A2
:101F9000884830000018202020110E000000C020CA
:101FA00010F8000000070424243F240000F80888EB
:101FB000880808000019212020110E0000E0108878
:101FC00088180000000F112020110E0000380808AA
:101FD000C83808000000003F0000000000708808BA
:101FE00008887000001C222121221C0000E010083B
:101FF0000810E0000000312222110F00000000C094
:10200000C000000000000030300000000000008030
:102010000000000000008060000000000000804020
:102020002010080000010204081020004040404039
:10203000404040000404040404040400000810208C
:1020400040800000002010080402010000704808D1
:102050000808F0000000003036010000C030C82839
:10206000E810E0000718272423140B000000C038F4
:10207000E0000000203C23020227382008F888886E
:1020800088700000203F202020110E00C03008087A
:1020900008083800071820202010080008F8080851
:1020A0000810E000203F202020100F0008F888884A
:1020B000E8081000203F20202320180008F8888816
:1020C000E8081000203F200003000000C03008088E
:1020D0000838000007182020221E020008F8080017
:1020E0000008F808203F210101213F20000808F8DE
:1020F000080800000020203F202000000000080801
:10210000F8080800C08080807F00000008F888C0C0
:1021100028180800203F20012638200008F8080071
:1021200000000000203F20202020300008F8F800A8
:10213000F8F80800203F003F003F200008F830C0BA
:102140000008F808203F200007183F00E0100808AA
:102150000810E0000F10202020100F0008F80808D9
:102160000808F000203F210101010000E0100808EC
:102170000810E0000F18242438504F0008F8888811
:1021800088887000203F2000030C302000708808F1
:10219000080838000038202121221C00180808F8FF
:1021A000080818000000203F2000000008F8080080
:1021B0000008F808001F202020201F000878880051
:1021C00000C83808000007380E010000F80800F8C1
:1021D0000008F800033C0700073C0300081868806B
:1021E0008068180820302C03032C30200838C800E1
:1021F000C83808000000203F200000001008080830
:10220000C83808002038262120201800000000FED1
:10221000020202000000007F40404000000C30C07D
:1022200000000000000000010638C00000020202A9
:10223000FE000000004040407F000000000004025B
:102240000202040000000000000000000000000086
:102250000000000080808080808080800002020476
:10226000000000000000000000000000000080806E
:10227000808000000019242222223F2008F80080DC
:1022800080000000003F112020110E00000000809F
:1022900080800000000E112020201100000000802E
:1022A0008088F800000E112020103F200000808060
:1022B00080800000001F222222221300008080F074
:1022C000888888180020203F20200000000080809F
:1022D00080808000006B94949493600008F80080E4
:1022E00080800000203F210000203F20008098983F
:1022F000000000000020203F20200000000000809F
:102300009898000000C08080807F000008F80000DE
:1023100080808000203F24022D302000000808F833
:10232000000000000020203F2020000080808080EE
:1023300080808000203F20003F20003F8080008080
:1023400080800000203F210000203F20000080808E
:1023500080800000001F202020201F00808000803F
:102360008000000080FFA12020110E0000000080EE
:1023700080808000000E112020A0FF8080808000DF
:102380008080800020203F2120000100000080800C
:10239000808080000033242424241900008080E001
:1023A000808000000000001F2020000080800000CE
:1023B00000808000001F202020103F2080808000AF
:1023C0000080808000010E300806010080800080BF
:1023D000008080800F300C030C300F0000808000E4
:1023E000808080000020312E0E312000808080000F
:1023F0000080808080818E701806010000808080BF
:10240000808080000021302C22213000000000005C
:10241000807C020200000000003F404000000000FD
:10242000FF00000000000000FF0000000002027C2E
:10243000800000000040403F000000000006010155
:102440000202040400000000000000001F1D1F1E07
:102450001F1E1F1F1E1F1E1F7824000800000020C3
:1024600094000000280100080C25000894000020BA
:10247000544B00004401000801010101000000006C
:10248000000000000000000000000000000000004C
:102490000000000000000000000000000000E9074C
:1024A00006000E0008000000000000000000000010
:1024B000000000000000000000000000000000001C
:1024C0000000000000000000AAAAAAAA0000000064
:1024D00000000000000000000000000000000000FC
:1024E00000000000000000000000000000000000EC
:1024F00000000000000000000000000004000000D8
:0C250000000000000000000000000000CF
:04000005080000ED02
:00000001FF
